:020000040800F2
:100000002806002001010008EB2C0008291E00082A
:10001000E92C00086D0100084D33000800000000C5
:10002000000000000000000000000000152D000886
:100030006F01000800000000ED2C0008172D0008DB
:100040001B0100081B0100081B0100081B01000820
:100050001B0100081B0100081B0100081B01000810
:100060001B0100081B0100081B0100081B01000800
:100070001B0100081B0100081B0100081B010008F0
:100080001B0100081B0100081B0100081B010008E0
:100090001B0100081B0100081B0100081B010008D0
:1000A0001B0100081B0100081B0100081B010008C0
:1000B000B12D00081B010008BD2D0008391E0008E5
:1000C0002D1E00081B0100081B0100081B01000871
:1000D0001B010008413300081B0100081B01000838
:1000E0001B0100081B0100081B010008DFF80CD0F1
:1000F00000F02AF8004800475D3400082806002078
:100100000648804706480047FEE7FEE7FEE7FEE7B1
:10011000FEE7FEE7FEE7FEE7FEE7FEE7692D0008E3
:10012000ED000008D2B201E000F8012B491EFBD21D
:1001300070470022F6E710B513460A4604461946F2
:10014000FFF7F0FF204610BD064C074D06E0E068C3
:1001500040F0010394E8070098471034AC42F6D30E
:10016000FFF7C8FF0839000828390008FEE7704784
:1001700090F821100022022905D00421816380F823
:1001800020200120704701680B6823F00E030B60EC
:1001900001680B6823F001030B6090F84030D0F841
:1001A0003CC0012101FA03F3CCF8043080F821109F
:1001B00080F820201046704710B5002490F82110D8
:1001C000022903D004218163012437E001680A6811
:1001D00022F00E020A6001680A6822F001020A6039
:1001E000174A0168914201D101211CE0154A914250
:1001F00001D1102117E0144A914201D1891512E072
:10020000124A914201D189140DE0114A914202D162
:100210004FF4803107E00F4A914202D14FF4801130
:1002200001E04FF080710C4A5160012180F82110EB
:10023000002180F82010416B01B18847204610BD95
:10024000080002401C00024030000240440002400E
:10025000580002406C0002400000024090F821006B
:10026000704700002DE9F84F4FF0000C00230A689A
:10027000002A7DD0DFF8DC810F2708F1040909F19D
:10028000040A0AF1040B012202FA0CF60A68324051
:10029000B2426ED1DFF8C0E14C68A4EB0E057445A4
:1002A0002BD00DDC032C34D005DC34B3012C19D059
:1002B000022C2FD11BE0112C16D0122C2AD119E0C0
:1002C000B5F5881F19D006DCB5F5803F15D0B5F51A
:1002D000801F1FD111E0B5F5001F0ED0B5F5041F2A
:1002E00018D10AE0CB6815E0CB681B1D12E0CB6883
:1002F00008330FE0CB680C330CE08B6823B1012B83
:1003000004D00823466105E0042303E008230661C6
:1003100000E00023B2F5807F01D2054601E000F144
:10032000040502D24FEA8C0403E0ACF108044FEA62
:1003300084042E6807FA04FE26EA0E0603FA04F483
:1003400046EA04042C604C6814F0805F79D0434C7A
:10035000A56945F00105A561A46904F001040094B4
:100360002CF0030404F1804404F58034A66801E015
:100370006EE066E04FEA8C754FEA157507FA05FEE8
:1003800026EA0E0EA0F18046B6F584361ED0A0F106
:100390008046B6F586361BD0A0F18046B6F5883685
:1003A00018D0A0F18046B6F58A3615D0042606FA94
:1003B00005F545EA0E05A5604C6814F4803F0DD0A4
:1003C000D8F800401443C8F800400CE00026EEE7DF
:1003D0000126ECE70226EAE70326E8E7D8F8004022
:1003E0009443C8F800404C6814F4003F05D0D9F895
:1003F00000401443C9F8004004E0D9F80040944399
:10040000C9F800404C6814F4801F05D0DAF80040A9
:100410001443CAF8004004E0DAF800409443CAF8F4
:1004200000404C6814F4001F05D0DBF80040224364
:10043000CBF8002005E0DBF8004024EA0202CBF80C
:1004400000200CF1010C0A6832FA0CF27FF41BAFA9
:10045000BDE8F88F000401400000111000100240B8
:10046000C26821EA0203114043EA01410161704779
:10047000002A01D001617047090401617047000042
:1004800001488068704700001400002070477047E2
:100490002DE9F041044621684E694F68002594F823
:1004A0003E0016F4807F0BD017F4807F08D0012522
:1004B0006FF480724A6121680A6842F400420A605F
:1004C00016F4007F08D017F4807F05D045F00205B0
:1004D00022686FF40071516116F4806F25D017F413
:1004E000807F22D0628D94F83D10236B202808D1A4
:1004F0003AB9212910D029290ED0282901D1212B40
:100500000AD022686FF48061516145F0040510281B
:1005100006D0402804D008E0204602F08BF904E021
:100520002068016841F40071016016F4006F08D082
:1005300017F4807F05D045F0080521686FF400604E
:100540004861002D07D0206C284320642046BDE878
:10055000F04101F0EBBCBDE8F0812DE9F04104462B
:100560000021D4F800C0DCF80420E56A94F83E309D
:1005700094F83D00102B07D0402B05D0236C002BA6
:100580007BD0DCF814307CE0DCF81860DCF8141068
:1005900011F0010F05D1B5F52A0F7ED0B5F12A4F24
:1005A0007BD011F0010F0AD012F4007F07D0204653
:1005B00001F048FC2046BDE8F04102F009B811F016
:1005C000080F07D012F4007F04D02046BDE8F041A8
:1005D00001F0F8BE11F0020F07D012F4007F04D032
:1005E0002046BDE8F04101F002BF16F0040F26D00E
:1005F000DCF804C01CF4006F4FD111F0800F05D05F
:1006000012F4806F02D011F0040F0ED011F0040F1D
:1006100043D012F4007F40D021280BD0402B3CD196
:100620002046BDE8F04102F023B82046BDE8F04185
:1006300001F066BE2046BDE8F04101F016BEDCF8D0
:10064000040010F4006F6ED111F0400F05D012F4C9
:10065000806F02D011F0040F0AD011F0040F62D0A5
:1006600012F4007F5FD02046BDE8F04101F014BDD8
:100670002046BDE8F04101F08FBDDCF81810DCF831
:10068000143013F0020F0DD012F4007F0AD0206C4A
:1006900008B1DCF81810204600E044E0BDE8F04165
:1006A00002F0A1B813F0100F07D012F4007F04D0AD
:1006B0002046BDE8F04102F0FFB8212815D02928D6
:1006C00013D013F0400F05D012F4806F02D013F056
:1006D000040F23D013F0040F25D012F4007F22D092
:1006E0002046BDE8F04102F01EB813F0800F05D09F
:1006F00012F4806F02D013F0040F0AD013F0040F2D
:1007000011D012F4007F0ED02046BDE8F04102F077
:100710003AB82046BDE8F04102F043B82046BDE8B3
:10072000F04102F00EB8BDE8F081704770B50446A4
:10073000002C04D094F83D00002510B106E0012003
:1007400070BD84F83C50204600F0CCF8242084F89A
:100750003D002068016821F0010101602068016806
:1007600041F4004101602068016821F4004101600A
:1007700000F076FA544B6168994203D85349884295
:1007800003D304E05249884201D2012070BD51498F
:10079000B0FBF1F12268D2F804C02CF03F0C4CEA17
:1007A000010CC2F804C062689A4201D84A1C07E0F2
:1007B0004FF4967251434FF47A72B1FBF2F14A1C36
:1007C0002168D1F820C02CF03F0C42EA0C020A62EA
:1007D0006168994210D84900401EB0FBF1F2521CEA
:1007E000C2F30B02042A01D2042026E0B0FBF1F090
:1007F000401CC0F30B0020E0A268002A50D001EB9F
:10080000C10303EB0113A0F1010CBCFBF3F35B1C70
:1008100043F480431B051B0D4AD0002A4AD001EB4C
:10082000C10202EB0111401EB0FBF1F0401CC0F30D
:100830000B0040F4804040F400402168CA6922F077
:10084000FF0222F44F421043C861216AE06901436C
:100850002068026822F0C00211430160E16820694B
:1008600001432068826822F0FF0222F40342114310
:100870008160A169606901432068C26822F0FF02BB
:100880001143C1602068016841F0010101602564E5
:10089000202084F83D00256384F83E50002070BD80
:1008A00001EB4103A0F1010CBCFBF3F35B1CB1E7CE
:1008B0000120C2E701EB4101401EB0FBF1F0401CFA
:1008C000C0F30B00B7E70000A086010080841E0083
:1008D00000093D0040420F00704770477047704765
:1008E0007047000010B586B000210091019102917F
:1008F000039100681B49884232D11B4CA06940F02B
:100900000800A061A069694600F0080004904FF457
:100910004070009012200190032003901348FFF7CD
:10092000A1FC1348416841F0E06141F002014160DF
:10093000E06940F40010E061E069002200F400107A
:10094000049011461F2000F07FF81F2000F06EF881
:1009500000221146202000F077F8202000F066F8F1
:1009600006B010BD0054004000100240000C0140D1
:1009700000000140704770470248816802781144C6
:10098000816070471400002010B50748016841F0ED
:1009900010010160032000F08BF8002000F006F841
:1009A00000F026F8002010BD0020024070B504467B
:1009B0000D4D4FF47A712878B1FBF0F00B490968BE
:1009C000B1FBF0F000F0BEFB08B1012070BD102CAF
:1009D00007D200222146501E00F036F86C6000203D
:1009E00070BD012070BD0000140000201000002028
:1009F0000C4808B5816941F001018161816901F00C
:100A000001010091C16941F08051C161C06900F0EC
:100A1000805000900448416821F0E06141F000718D
:100A2000416008BD001002400000014000280ADBC0
:100A300000F01F01012202FA01F14009800000F1DB
:100A4000E020C0F80011704710B4184B1B68C3F3C6
:100A50000223C3F1070CBCF1040F01D94FF0040CC1
:100A60001C1D072C01D2002300E0DB1E012404FA28
:100A70000CFCACF1010C0CEA0101994004FA03F3FF
:100A80005B1E1A401143002806DB00F1E02009013B
:100A900080F8001410BC704700F00F0000F1E02057
:100AA000090180F8141D10BC704700000CED00E037
:100AB00000F00700064A11684FF6FF03194041EAAB
:100AC000002040F0FD7040F0806010607047000032
:100AD0000CED00E02DE9F04704460D46002C17D040
:100AE000DFF85C81D8F8000000F00700A84212D2BD
:100AF000D8F8000020F007002843C8F80000D8F814
:100B0000000000F00700A84205D00120BDE8F087F2
:100B10000120BDE8F08720684A4E10F0020F14D083
:100B200010F0040F03D0706840F4E060706020782B
:100B300010F0080F03D0706840F460507060706867
:100B400020F0F001A06808437060207810F0010FD9
:100B50003AD06068012806D002280BD0316811F025
:100B6000020F27D00AE0316811F4003F06D10120BE
:100B7000BDE8F087316811F0007F18D0716821F06E
:100B8000030108437060FFF77BFC074670686168EB
:100B900000F00C00B0EB810F16D041F28839FFF75E
:100BA0006FFCC01B484508D90320BDE8F087012031
:100BB000BDE8F0870120BDE8F0877068616800F04B
:100BC0000C00B0EB810FEAD1D8F8000000F007006C
:100BD000A8420FD9D8F8000020F007002843C8F831
:100BE0000000D8F8000000F00700A84202D0012061
:100BF000BDE8F087207810F0040F05D07068E16838
:100C000020F4E06008437060207810F0080F06D0F0
:100C10007068216920F4605040EAC100706000F003
:100C20003FF87168084AC1F30311515CC840074995
:100C3000086007480068FFF7B9FE0020BDE8F087AC
:100C40000020024000100240F03800081000002090
:100C500018000020014800687047000010000020C4
:100C600000B5FFF7F7FF04494968044AC1F30221C0
:100C7000515CC84000BD000000100240003900086F
:100C800000B5FFF7E7FF04494968044AC1F3C221F0
:100C9000515CC84000BD000000100240003900084F
:100CA00085B015A0836842680168C068039302920A
:100CB0000191049014A000680090144B59681448E6
:100CC00001F00C02042A11D0082A0FD101A8C1F3A7
:100CD0008342805C11F4803F0AD05968C1F34041DF
:100CE0001DF801100A4A5043B0FBF1F005B07047FF
:100CF000084905B048437047020304050607080980
:100D00000A0B0C0D0E0F1010010200000010024023
:100D100000127A0000093D002DE9F84F0446002C2E
:100D20000FD02078F84D10F0010F6CD0686800F0FB
:100D30000C0004280CD0686800F00C00082803D0D0
:100D400010E00120BDE8F88F686810F4803F09D0FA
:100D5000286810F4003F56D06068002853D1012065
:100D6000BDE8F88F6068B0F5803F15D0C8B1B0F528
:100D7000A02F1FD0286820F480302860286820F435
:100D800080202860606858B3FFF77AFB0646286821
:100D900010F4003F17D036E0286840F48030286017
:100DA000F0E7286820F480302860286820F480204C
:100DB0002860E7E7286840F480202860286840F42D
:100DC00080302860DEE7FFF75BFB801B642802D9D8
:100DD0000320BDE8F88F286810F4003FF3D012E03C
:100DE000FFF74EFB0646286810F4003F0BD0FFF7D4
:100DF00047FB801B642802D90320BDE8F88F2868D0
:100E000010F4003FF3D12078C04F10F0020F4FF0E4
:100E1000010B4FF0000854D0686810F00C0F14D08C
:100E2000686800F00C00082803D1686810F4803F5F
:100E30000BD0206978B3C7F800B0FFF721FB064656
:100E4000286810F0020F12D01DE0286810F0020F81
:100E500005D02069012802D00120BDE8F88F28685C
:100E6000616920F0F80040EAC100286029E0FFF73E
:100E700007FB801B022802D90320BDE8F88F2868F1
:100E800010F0020FF3D02868616920F0F80040EA02
:100E9000C100286015E0FFE7C7F80080FFF7F0FA0F
:100EA0000646286810F0020F0BD0FFF7E9FA801B06
:100EB000022802D90320BDE8F88F286810F0020F3D
:100EC000F3D1207810F0080F30D09148A169C1B15A
:100ED000C0F800B0FFF7D4FA0646686A10F0020FB7
:100EE0000BD1FFF7CDFA801B022802D90320BDE801
:100EF000F88F686A10F0020FF3D0012001F0F8FEBD
:100F000014E0C0F80080FFF7BBFA0646686A10F0EC
:100F1000020F0BD0FFF7B4FA801B022802D903207E
:100F2000BDE8F88F686A10F0020FF3D1207810F056
:100F3000040F6FD00026E86910F0805F08D1E869DF
:100F400040F08050E861E86900F080500090012690
:100F5000DFF8C0A1DAF8000010F4807F1BD1DAF8C6
:100F6000000040F48070CAF80000FFF789FA81465B
:100F7000DAF8000010F4807F0DD1FFF781FAA0EBC2
:100F80000900642802D90320BDE8F88FDAF80000D0
:100F900010F4807FF1D0E068012816D0D0B1052888
:100FA00021D0286A20F001002862286A20F004007D
:100FB0002862E06841F2883A68B3FFF761FA814637
:100FC000286A10F0020F17D03AE0286A40F00100BA
:100FD0002862EEE7286A20F001002862286A20F0E3
:100FE00004002862E5E7286A40F004002862286AC5
:100FF00040F001002862DCE7FFF742FAA0EB0900AD
:10100000504502D90320BDE8F88F286A10F0020F7E
:10101000F2D015E01AE0FFE7FFF732FA8146286ABE
:1010200010F0020F0CD0FFF72BFAA0EB090050458F
:1010300002D90320BDE8F88F286A10F0020FF2D120
:10104000012E03D1E86920F08050E861E069E8B33F
:10105000696801F00C0108295ED0022810D0C7F899
:101060006080FFF70DFA0446286810F0007F66D014
:10107000FFF706FA001B022841D90320BDE8F88FCC
:10108000C7F86080FFF7FCF90646286810F0007F7B
:101090000BD0FFF7F5F9801B022802D90320BDE829
:1010A000F88F286810F0007FF3D1206AB0F5803FF8
:1010B00005D16868A16820F4003008436860616A5F
:1010C000206A0843696821F4741100E037E008439E
:1010D0006860C7F860B0FFF7D3F90446286810F0DD
:1010E000007F2CD1FFF7CCF9001B022802D9032086
:1010F000BDE8F88F286810F0007FF3D01FE0286863
:1011000010F0007FB4D11AE000100240000042420B
:10111000800442420070004001280DD06868226AB5
:1011200000F48031914204D1616A00F47010884269
:1011300005D00120BDE8F88F0120BDE8F88F002020
:10114000BDE8F88F401EB0F1807F01D301207047C9
:101150004FF0E0214861044AF020107000208861BF
:10116000072008610020704723ED00E070477047BA
:1011700090F83C20012A2CD0012280F83C20CA683B
:101180000023D1F808C022F4407242EA0C02D1F8E0
:1011900004C022F4806242EA0C02D1F800C022F4BA
:1011A000006242EA0C02D1F810C022F4805242EAF6
:1011B0000C02D1F814C022F4005242EA0C02C969B0
:1011C00022F4804211430268516480F83C300020D0
:1011D00070470220704730B490F83C20012A30D08C
:1011E000012480F83C40022280F83D200268D2F8B9
:1011F00004C093682CF0700C0D6845EA0C0CC2F822
:1012000004C00268A2F1804CBCF5963C0CD0B2F14F
:10121000804F09D0A2F1804CBCF5806C04D0A2F1C3
:10122000804CBCF5006C04D123F08003496819435D
:10123000916080F83D40002180F83C1030BC0020D7
:10124000704730BC0220704710B50446002C03D014
:1012500094F83D0010B107E0012010BD002084F893
:101260003C00204600F01EF8022084F83D00211DBD
:10127000206801F0A9FD012084F8460084F83E00B2
:1012800084F83F0084F8400084F8410084F842006C
:1012900084F8430084F8440084F8450084F83D0055
:1012A000002010BD08B501681448B1F1804F14D07A
:1012B000134A914220D1C16941F00401C161C06962
:1012C000002200F00400009011461E20FFF7BCFB36
:1012D0001E20BDE80840FFF7A9BBC16941F001012C
:1012E000C161C069002200F00100009011461C207D
:1012F000FFF7AAFB1C20ECE708BD0000001002402D
:101300000008004090F83D10012901D001207047ED
:10131000022180F83D100168CA6842F00102CA60EB
:101320000068A0F18041B1F5963112D0B0F1804F44
:101330000FD0A0F18041B1F580610AD0A0F18041C9
:10134000B1F5006105D0016841F0010101600020A4
:101350007047816801F007010629F8D0016841F063
:1013600001010160F3E770B5044694F83C000128E0
:1013700018D0012584F83C50022084F83D002068F4
:10138000826822F0770222F47F4282600868502847
:1013900032D00EDC20284DD006DC00284AD01028A0
:1013A0004DD147E0022070BD302843D0402846D1BF
:1013B00036E060282AD0702806D0B0F5805F3ED095
:1013C000B0F5005F3BD10BE0CB684A6889682068C4
:1013D00001F045FD2068816841F0770181602EE0D1
:1013E000CB684A688968206801F039FD2068816807
:1013F00041F48041816022E0CA684968206801F0B8
:1014000004FE5021206801F035FD18E0CA684968E3
:10141000206801F00DFE6021206801F02BFD0EE038
:10142000CA684968206801F0F0FD4021206801F099
:1014300021FD04E022680146104601F01BFD84F8FE
:101440003D50002084F83C0070BD704770B50446E4
:10145000206801694FF0000511F0020F17D0C16834
:1014600011F0020F13D0E91E0161012020772068DE
:10147000806910F0030F03D02046FFF7E6FF05E078
:10148000204600F0D3F8204600F088F92577206840
:10149000016911F0040F18D0C16811F0040F14D0C5
:1014A0006FF004010161022020772068806910F448
:1014B000407F03D02046FFF7C8FF05E0204600F03C
:1014C000B5F8204600F06AF925772068016911F027
:1014D000080F18D0C16811F0080F14D06FF0080180
:1014E0000161042020772068C06910F0030F03D049
:1014F0002046FFF7AAFF05E0204600F097F82046B7
:1015000000F04CF925772068016911F0100F18D010
:10151000C16811F0100F14D06FF0100101610820A4
:1015200020772068C06910F4407F03D02046FFF781
:101530008CFF05E0204600F079F8204600F02EF9F7
:1015400025772068016911F0010F09D0C16811F0F9
:10155000010F05D06FF001010161204600F078F91C
:101560002068016911F0800F09D0C16811F0800F67
:1015700005D06FF0800101612046FFF7F7FD20687C
:10158000016911F0400F09D0C16811F0400F05D07A
:101590006FF040010161204600F0DAF9206801692E
:1015A00011F0200F0BD0C16811F0200F07D06FF0A1
:1015B000200101612046BDE87040FFF7D8BD70BD35
:1015C00010B586B000210091019102910391134C56
:1015D0000368134902221348A3420AD18B6943F0DE
:1015E00004038B61896901F0040104914FF4706177
:1015F0000BE00D4CA3420ED18B6943F004038B61C9
:10160000896901F004010491C021CDE90012694605
:101610000392FEF727FE06B010BD0000002C01402B
:10162000001002400008014000040040704770B5FF
:1016300004460D4694F83C0001280AD0012084F8A5
:101640003C0042B1042A1AD0082A2DD00C2A53D1CA
:101650003EE0022070BD2946206801F013FC20689E
:10166000816941F0080181612068816921F00401EC
:101670008161206881692A69114381613CE02946C2
:10168000206801F033FC2068816941F400618161C8
:101690002068816921F480618161206881692A69FB
:1016A00041EA0221816127E02946206801F052FCCD
:1016B0002068C16941F00801C1612068C16921F059
:1016C0000401C1612068C1692A691143C16113E045
:1016D0002946206801F072FC2068C16941F400616C
:1016E000C1612068C16921F48061C1612068C1695C
:1016F0002A6941EA0221C161002084F83C0070BDE2
:1017000010B50446002C03D094F83D0010B107E05A
:10171000012010BD002084F83C00204600F01EF897
:10172000022084F83D00211D206801F04DFB0120BE
:1017300084F8460084F83E0084F83F0084F84000B6
:1017400084F8410084F8420084F8430084F844009F
:1017500084F8450084F83D00002010BD08B50C4A0F
:1017600001680C48914207D1816941F400618161AF
:10177000806900F4006009E0074A914207D1C1691D
:1017800041F00201C161C06900F00200009008BD93
:10179000002C01400010024000040040704700008F
:1017A00010B50446002909D004290AD008290BD015
:1017B00094F8410001280AD0012010BD94F83E00A1
:1017C000F8E794F83F00F5E794F84000F2E70220CC
:1017D00089B3042933D0082934D084F84100012288
:1017E000206801F02DFB19492068884203D1426C22
:1017F00042F4004242642068884212D0B0F1804F27
:101800000FD0A0F18041B1F580610AD0A0F18041F4
:10181000B1F5006105D0016841F0010101600020CF
:1018200010BD816801F007010629F8D0016841F078
:1018300001010160F3E7FFE784F83E00CFE784F899
:101840003F00CCE784F84000C9E70000002C0140CD
:1018500070B53A490025884202D139490D704D7062
:1018600036499039884267D101F5B074354E6078B9
:10187000C00704D1002204213046FEF7F9FD60784C
:10188000800704D4002208213046FEF7F1FD60787D
:10189000000704D4002220213046FEF7E9FD6078DD
:1018A000400704D4002210213046FEF7E1FD6078A5
:1018B000254EC00604D4002201213046FEF7D8FD93
:1018C0006078800604D4002202213046FEF7D0FD65
:1018D0006078400604D4002204213046FEF7C8FD9B
:1018E000A0781A4EC00704D1002271143046FEF7CA
:1018F000BFFDA078800705D400224FF48041304618
:10190000FEF7B6FDA078400705D400224FF4004151
:101910003046FEF7ADFDA078C0060DD408484D2135
:101920000A300A23017045700146BDE87040034843
:1019300002228C3000F012BA70BD00004C01002071
:101940000000002000080140000C01400010014090
:101950007047704770470000F8B504462268106869
:10196000D168536900F00F0CBCF1000F0AD110F0E0
:10197000200F07D011F0200F04D02046BDE8F8401A
:1019800001F095BB0025BCF1000F6DD003F0010CF8
:1019900001F490765CEA060666D010F0010F06D0DE
:1019A00011F4807F03D0226C42F00102226410F017
:1019B000040F06D013F0010F03D0226C42F0020294
:1019C000226410F0020F06D013F0010F03D0226C36
:1019D00042F00402226410F0080F08D001F0200247
:1019E00052EA0C0203D0226C42F008022264226CFC
:1019F000002A2FD010F0200F05D011F0200F02D0B8
:101A0000204601F054FB20684069C0F38010216C2F
:101A100011F0080F00D110B3204601F023FB20681D
:101A2000416911F0400F16D0416921F04001416138
:101A3000A06B60B147494163A06BFEF7BDFB002876
:101A400008D0A06B416B01B0BDE8F04008472046CC
:101A5000FFF780FFF8BD2046FFF77CFFF8BD20466A
:101A6000FFF778FF2564F8BD236B012B5BD110F0E5
:101A7000100F58D011F0100F55D01068506800901A
:101A800050694FF0200310F0400F2ED0A16B086872
:101A9000406880B20028E6D0B4F82CC08445E2D972
:101AA000E0858869202818D0D06820F48070D06044
:101AB0002068416921F0010141612068416921F0FC
:101AC0004001416184F83E3025632068C16821F0FF
:101AD0001001C160A06BFEF74BFBA08DE18D401A99
:101AE00081B22046FFF735FFF8BDA08DE18D401A89
:101AF00081B2E08D0028F7D00029F5D0D06820F41D
:101B00009070D0602068426922F00102426184F83E
:101B10003E3025632068C26822F01002C260204671
:101B2000FFF717FFF8BD10F0800F07D011F0800FFE
:101B300004D02046BDE8F84001F097BB10F0400FFC
:101B4000F0D011F0400FEDD02046BDE8F84001F094
:101B5000A1BA00005530000870B50446002C04D02E
:101B600094F83D00002510B106E0012070BD84F816
:101B70003C50204600F022F8242084F83D002068E4
:101B8000C16821F40051C160204601F0EFFA2068DD
:101B9000016921F4904101612068416921F02A0125
:101BA00041612068C16841F40051C1602564202072
:101BB00084F83D0084F83E00002070BD70B586B00A
:101BC000002400940194029403942E4E03682E493D
:101BD000022003222D4DB34230D18B6943F4804360
:101BE0008B618B6903F4804304938B6943F0080392
:101BF0008B618969039201F0080104914021CDE9CC
:101C0000001069462846FEF72DFB8020CDE9000430
:101C1000694628460294FEF725FB1D48416841F0BD
:101C2000E06141F004014160002211462520FEF7E9
:101C30000BFF2520FEF7FAFE06B070BD154EB3422D
:101C4000FAD1CB6943F48023CB61CB6903F48023C1
:101C500004938B6943F008038B618969039201F057
:101C6000080104913115CDE9001069462846FEF7B8
:101C7000F9FAF014CDE90004694628460294FEF70B
:101C8000F1FAD9E70038014000100240000C014091
:101C9000000001400048004090F83E30202B01D069
:101CA0000220704759B152B190F83C30012B08D056
:101CB000012380F83C300023036301F0BBBA01200C
:101CC000704702207047000070B54FF480512048E3
:101CD000FEF7C6FB1F4CE01CA17829B1421D02296A
:101CE00020D0012921D026E000788A2813D0194D70
:101CF000010605F1060501D5217871B12978E9B110
:101D0000154A6870505401F031FB2078401E207055
:101D10000020287012E002200FE080382870012097
:101D200020700BE00078107005E0007850700948D2
:101D3000083001F019FCA078401EA0700549BDE8EC
:101D4000704005480122C91C8838FFF7A5BF000074
:101D5000000C0140000000201C0200202DE9F84387
:101D600004460E4615461F4694F83D00202802D032
:101D70000220BDE8F883C6B1BDB194F83C0001284B
:101D800016D0012084F83C004FF00009C4F84090C0
:101D9000212084F83D00FEF773FB8046A584E5848E
:101DA000A068B0F5805F06D007E00120BDE8F883A9
:101DB0000220BDE8F883206980B13546002684F80A
:101DC0003C90E08CB8B14346002280212046009729
:101DD00001F07AFA20B10320BDE8F8830025EEE790
:101DE000A5B12168287848606D1CE08C401EE08415
:101DF000E08C0028E7D1434600224021204600978E
:101E000001F062FA48B10320BDE8F8833088216808
:101E1000C0F308004860B61CE7E7202084F83D00C6
:101E20000020BDE8F8837047FEE700000148FEF798
:101E30002FBB0000200000200148FEF78EBB0000F1
:101E400020000020C16AB1F52A0F06D0C16AB1F1A5
:101E50002A4F01D10821C16270470121C162704738
:101E600008B50022406A90F83D302F4946F2A81C80
:101E70000968B1FBFCF1C1EBC10101EB81010091EB
:101E80000099002934D00099491E00910168096821
:101E900011F4007FF4D1416B01B18A62816B01B111
:101EA0008A620168D1F800C02CF4806CC1F800C0CF
:101EB0004285416B01B14A63816B01B14A6301689C
:101EC000D1F800C02CF0010CC1F800C090F83DC062
:101ED0002021BCF1600F10D04FF0280C3CEA030326
:101EE00013D080F83D1080F83E20FEF71EFC08BDA0
:101EF000016C41F020010164CDE780F83D1080F8CD
:101F00003E200264FEF7C2FA08BD01680B6843F088
:101F100001030B6001680B6843F480630B6002638C
:101F200080F83DC0E1E700001000002070B50446D5
:101F300094F83D0094F83E10102901D0402906D1B4
:101F4000222804D121680A6822F400620A6028214C
:101F500031EA00024FF000054FF0200605D021685D
:101F6000496811F4006F04D009E0256384F83D103E
:101F700006E0602803D084F83D6084F83E50256375
:101F80002068416811F4006F35D0416821F4006188
:101F90004160606B3E4990F82120012A0FD04163D7
:101FA000606BFEF709F928B32068016821F0010190
:101FB000016084F83D60606B416B88472CE0A06B4A
:101FC0004163A06BFEF7F8F8A0B12068416911F0F9
:101FD000400F05D00069616A0870606A401C606249
:101FE0002068016821F00101016084F83D60A06B68
:101FF000416B884710E094F83D10602914D0416986
:1020000011F0400F05D00069616A0870606A401CD9
:1020100060622046FEF789FB206C00F0010100F0B1
:10202000020211431CD115E084F83D60256441692A
:1020300011F0400F05D00069616A0870606A401CA9
:1020400060622068016821F0010101602046FEF70E
:102050001DFAE1E710F0040F02D110F0080F04D0D0
:102060002068416821F4E061416094F83D00216CF2
:1020700011F0040F0BD0282809D10648E06225632F
:1020800084F83D6084F83E502046FEF725FC70BD84
:10209000611E00080000FFFF10B5C26A438D016891
:1020A000042B0FD0438D032B1BD0438D022B30D03C
:1020B0000969426A1170416A491C4162418D491E99
:1020C000418510BD4A6822F480624A60016809694E
:1020D000426A1170416A491C4162418D491E418525
:1020E00010BD4B6823F480634B60042A06D0022A9B
:1020F00004D001680A6822F480620A6001680969F4
:10210000426A1170416A491C4162418D491E4185F4
:1021100010BD012A30D0102A2ED0042A31D0022A34
:102120002FD00A6842F400720A6001680969426AA5
:102130001170416A491C4162428D521E42850268FB
:1021400012690A70416A491C4162418D491E4185EC
:1021500001684A6822F440724A60202180F83D10EC
:1021600090F83E200021402A10D080F83E10122125
:102170000163FEF7B2FB10BD0A6822F480620A60B8
:10218000D3E70A6842F480620A60CEE780F83E1026
:102190000163FEF7A4FB10BD10B5044694F83D00A2
:1021A000222814D1608D032812D920680069616A41
:1021B0000870606A401C6062608D401E6085608DA2
:1021C000032804D12068416821F48061416010BD7A
:1021D000E16A0229FBD0012801D00028F7D120466E
:1021E00000F01AFC00212022B0B12068436823F4DB
:1021F000E063436020680069636A1870606A401C8D
:102200006062608D401E608584F83D2084F83E1039
:102210002046FEF78AFA10BD2068036823F4806325
:1022200003602068436823F4E0634360206800692A
:10223000636A1870606A401C6062608D401E608531
:1022400084F83D2094F83E00402807D084F83E10E2
:10225000122020632046FEF740FB10BD84F83E109C
:1022600021632046FEF73BFB10BD10B5C16A90F814
:102270003D20212A0BD1428D52B1416A0268097872
:102280001161416A491C4162418D491E418510BD61
:1022900020230022082914D0202912D011F5803FD4
:1022A0000FD00168D1F804C02CF4E06CC1F804C070
:1022B0001121016380F83E2080F83D30FEF70EFBCF
:1022C00010BD0168D1F804C02CF4E06CC1F804C062
:1022D0000168D1F800C04CF4007CC1F800C0026372
:1022E00080F83D3090F83E10402904D080F83E2020
:1022F000FEF7F4FA10BD80F83E20FEF7F1FA10BDAB
:1023000010B590F83D1090F83E30C26AB0F828C081
:10231000BCF1000F01D1212917D0212903D0402B76
:1023200012D1222910D1418D002941D090F83E10C0
:10233000402943D0416A026809781161416A491C09
:102340004162418D491E418510BD00234FF0200C94
:10235000082A12D0202A10D012F5803F0DD0016833
:102360004A6822F4E0624A601121016380F83E303D
:1023700080F83DC0FEF7B2FA10BD01684A6822F449
:10238000E0624A6001680A6842F400720A6003630E
:1023900080F83DC090F83E10402904D080F83E30CF
:1023A000FEF79CFA10BD80F83E30FEF799FA10BD9A
:1023B0000068416821F48061416010BDBDE81040B3
:1023C00000F056B9416C0268C9B21161416B002935
:1023D00001D0896A29B9816B002907D0896A00294F
:1023E00004D00068416841F400614160704738B42E
:1023F00090F83EC0C26A046B90F83D50002301681B
:10240000222D04D048698869009038BC7047056D5A
:1024100015B9BCF1400F05D0D0F850C0BCF1000F89
:1024200005D009E048698869009038BC7047D0F849
:1024300010C0BCF5404F26D0B0F82AC0BCF1000F48
:102440002DD0B0F82AC0BCF1010F30D0B0F82AC0AE
:10245000BCF1020F74D0D1F800C04CF4806CC1F80C
:1024600000C00168D1F804C01CF4006F67D012F5F9
:10247000803F7DD0012A7BD0082A79D0102A77D0DE
:10248000202A75D09DE04A698A6900920A6842F460
:1024900080720A60016D491C016538BC70474A6949
:1024A0008A6900920A6842F400720A608DE012F5AF
:1024B000803F06D0082A20D0202A1ED0122C29D1F5
:1024C00019E00A6822F480620A6001684A6812F41E
:1024D000006F08D00A6822F480620A6001684A69C5
:1024E0008969009171E04A698A6900920A6842F438
:1024F00000720A6069E0012A0CD00A6822F4806246
:102500000A6001684A698A6900920A6842F40072A6
:102510000A605AE0042A08D0022A06D0102A04D001
:102520000A6822F480620A6003E00A6842F480626A
:102530000A6001684A698969009146E000E040E06C
:10254000042A19D0022A17D0102A15D0D1F800C0B9
:102550004CF4006CC1F800C00168D1F814C0D1F887
:1025600018C0CDF800C0D1F800C02CF4806C00E099
:1025700023E0C1F800C00AE0D1F800C04CF4806C40
:10258000C1F800C00168D1F814C0896900910168E0
:10259000D1F804C01CF4006F17D012F5803F07D0AB
:1025A000012A05D0082A03D0102A01D0202A0CD1F4
:1025B0004A6842F480524A6007E04A6842F4805216
:1025C0004A6001684A6989690091036538BC7047AF
:1025D00090F83E10402912D00169B1F5804F1DD00E
:1025E000016D00293BD0016D012907D1416C0068C4
:1025F00001F44071F12242EAD11101617047016D8D
:1026000031B1416C0068C9B241F00101016170470C
:10261000416C006801F0FE010161704790F83D10C7
:1026200021290AD0416C0268C9B241F0010111614F
:10263000416B41B1896A61B905E0416C026801F002
:10264000FE011161F4E7816B0029E6D0896A002957
:10265000E3D00068416841F4006141607047416C1B
:10266000006801F44071F02242EAD1110161704723
:1026700010B590F83D10026D002A24D0026D012A99
:1026800035D0026D022A1DD1222938D0428D0AB1DF
:1026900021293DD0428D002A14D1212912D101686F
:1026A0004A6822F4E0624A6001680A6842F40072F3
:1026B0000A6000210163202280F83D2080F83E104E
:1026C000FEF70EF910BDC16C012908D0816C0268BB
:1026D000C1F307211161016D491C016510BD816CB9
:1026E0000268C9B21161016D891C016510BD816C60
:1026F0000268C9B21161016D491C016510BD016814
:102700000A6842F480720A60016D491C016510BDBF
:10271000416A026809781161416A491C4162418D30
:10272000491E418510BD418D002909D00168096904
:10273000426A1170416A491C4162418D491E4185BE
:10274000704710B590F83D10428D002A1AD00268EB
:102750001269436A1A70426A521C4262428D521ECA
:102760004285428D002A0DD12A290BD101684A6881
:1027700022F480624A6022210163282180F83D1002
:10278000FEF7F8F810BD418D002909D0416A0268B2
:1027900009781161416A491C4162418D491E418598
:1027A000704710B590F83D10428D002A1AD0426A49
:1027B000036812781A61426A521C4262428D521EAC
:1027C0004285428D002A0DD129290BD101684A6822
:1027D00022F480624A6021210163282180F83D10A3
:1027E000FEF7C9F810BD38B5002390F83D204FF032
:1027F000280C3CEA020402689C4605D051699169A4
:10280000009180F83CC038BD546824F48064546062
:1028100011F0040F00D1012311F0800F07D0018BBC
:102820008AB280F83CC01946FDF731FE38BD818977
:102830008AB2F6E770B590F83D20C36A20251D4C9A
:1028400001684FF0000C6FF48066082B01D0202B3C
:1028500001D1282A03D0212A16D04E6170BDC4624E
:102860004A6822F4E0624A6001684E6101680A68C1
:1028700022F480620A60C0F830C080F83D5080F8D1
:102880003EC0FEF729F870BDC4622122026380F8C1
:102890003D5080F83EC04A6822F4E0624A60016818
:1028A0004E6101680A6822F480620A60FEF763F8EC
:1028B00070BD00000000FFFFF8B5044694F83D50DD
:1028C0002068416821F4E061416000262068416988
:1028D0000091016841F0010101602068016821F464
:1028E000806101602068416811F4006F20D0484F7A
:1028F000222D48D02A2D46D0616B09684968618530
:10290000618D19B1216C41F004012164416821F409
:1029100000614160606BFDF7A1FC012808D0606B8D
:102920004763606BFDF748FC10B1606B416B8847F3
:10293000608D08B32068416911F0040F08D0006968
:10294000616A0870606A401C6062608D401E60852C
:102950002068416911F0400F08D00069616A087071
:10296000606A401C6062608D401E6085608D18B199
:10297000206C40F004002064206C10B32046BDE8B9
:10298000F840FFF7D3BAA16B096849686185618D8A
:1029900019B1216C41F004012164416821F4006106
:1029A0004160A06BFDF75AFC0128C1D0A06B4763C2
:1029B000A06BFDF701FC0028BAD0A06B416B8847E3
:1029C000B6E72A2D06D12663282084F83D0020464C
:1029D000FDF7D0FF94F83D10202028290DD0216B61
:1029E000222901D0222D07D1266384F83D0084F8E6
:1029F0003E602046FDF7BEFFF8BD0649E162266352
:102A000084F83D0084F83E602046FDF765FFF8BD80
:102A1000611E00080000FFFF81B00E4946F2A812B7
:102A20000968B1FBF2F101EB810100910099491EA7
:102A30000091009939B10168096811F4007FF5D15E
:102A4000002001B07047016C41F0200101640120B9
:102A500001B07047100000202DE9F04F85B0002430
:102A60002E480094019402940394816941F010016E
:102A70008161816901F010010491816941F02001B7
:102A80008161816901F020010491816941F00401B3
:102A90008161816901F004010491816941F00801BB
:102AA00081618069DFF8789000F008004FF460459C
:102AB0000490002229464846FDF7DAFCDFF864A0BE
:102AC00049F23F07002239465046FDF7D1FCDFF8B6
:102AD00058B04FF23F08002241465846FDF7C8FC67
:102AE0000095022601250396CDE901546946484622
:102AF000FDF7B8FB00970396CDE9015469465046AF
:102B0000FDF7B0FBCDF800800396CDE9015469468E
:102B10005846FDF7A7FB05B0BDE8F08F0010024056
:102B20000010014000080140000C014010B592B0B7
:102B300000240F941C2168461094FDF7FAFA202116
:102B400007A8FDF7F6FA21481F49C0E900144FF421
:102B50003471C0E90241046144618461FEF7D0FD33
:102B60000F940FA919481094FEF735FB6020CDE9AA
:102B700000040294039404940594002269461348C7
:102B80000694FEF754FD042269461048FEF74FFDF7
:102B9000082269460D48FEF74AFD0C2269460B489B
:102BA000FEF745FD0794089409944FF400500A94E9
:102BB000CDE90B4007A905480E94FEF7D9FA034862
:102BC000FEF7FEFC12B010BD002C01407400002086
:102BD00010B586B000241248009401940294039426
:102BE00004944FF080410594016041F61F41C0E913
:102BF00001144FF4FA61C0E903148461FEF724FB69
:102C00004FF48050009069460548FEF7ACFB0494F1
:102C100004A903480594FEF7DEFA06B010BD0000D3
:102C2000BC00002010B58AB0002407941C2168461F
:102C30000894FDF77EFA16481449016040F28F119E
:102C4000C0E901144FF46161C0E903148461FEF727
:102C500057FD079407A90E480894FEF7BCFA6020B8
:102C600000904FF48770CDE90104002269460848BE
:102C70000494FEF7DCFC042269460548FEF7D7FC05
:102C80000348FEF79DFC0AB010BD000000040040A0
:102C90000401002010B586B000241248009401946D
:102CA0000294039404940E490594016041F61F4177
:102CB000C0E9011442F21071C0E903148461FEF707
:102CC000C3FA4FF48050009069460648FEF74BFB6C
:102CD000049404A903480594FEF77DFA06B010BDDC
:102CE000000800404C010020FEE7704770470000DC
:102CF00081B007494FF4FA520968B1FBF2F1484339
:102D0000009000BF0098411E0091FAD201B07047B8
:102D1000100000207047FDF72FBE30B58FB028217E
:102D20006846FDF706FA14210AA8FDF702FA012108
:102D30000804CDE900100024029402250491CDE995
:102D400007504FF4E01009906846FDF7E5FF0F20AB
:102D5000CDE90A056802CDE90C4002210AA80E94CB
:102D6000FDF7B8FE0FB030BD0D48016841F001011C
:102D7000016041680B4A1140416001680A4A1140F4
:102D80000160016821F480210160416821F4FE01A5
:102D900041604FF41F0181600449C003086070471F
:102DA000001002400000FFF8FFFFF6FE08ED00E013
:102DB0000148FEF74BBB0000BC0000200148FEF7B5
:102DC00045BB00004C01002030B40268194B1A4C7E
:102DD000DFF868C0984206D0B0F1804F03D0A0421F
:102DE00001D0604503D122F070024D682A43984219
:102DF00006D0B0F1804F03D0A04201D0604505D18C
:102E000022F44072D1F80CC04CEA0202D1F814C08E
:102E100022F0800242EA0C0202608A68C2620A68FA
:102E20008262984201D1096901630121416130BC8C
:102E300070470000002C01400004004000080040E2
:102E400001F01F0101238B40D0F820C02CEA0303BE
:102E50000362036A02FA01F1194301627047D0F874
:102E600008C02CF47F4C42EA0322114341EA0C01D2
:102E700081607047826822F07002114341F00701BF
:102E80008160704710B4026A22F001020262036A94
:102E90004268D0F818C02CF0700C2CF0030C0C68B1
:102EA00044EA0C0C23F002038C6823430E4CA0422E
:102EB00006D123F00803CC6844EA030323F004039B
:102EC00009D122F4807222F400724C6944EA0202B1
:102ED0008C6944EA02024260C0F818C04968416344
:102EE000036210BC70470000002C014010B4026A5D
:102EF00022F010020262036A4268D0F818C02CF473
:102F0000E04C2CF4407C0C684CEA042C23F02003A9
:102F10008C6843EA04130E4CA04206D123F08003D0
:102F2000CC6843EA041323F0400309D122F4806201
:102F300022F400624C6942EA84028C6942EA84020B
:102F40004260C0F818C049688163036210BC7047D2
:102F5000002C014010B4026A22F480720262036AFB
:102F60004268D0F81CC02CF0700C2CF0030C0C68DC
:102F700044EA0C0C23F400738C6843EA04230E4CDF
:102F8000A04206D123F40063CC6843EA042323F46F
:102F9000806309D122F4805222F400524C6942EA43
:102FA00004128C6942EA04124260C0F81CC04968ED
:102FB000C163036210BC7047002C014010B4026A68
:102FC00022F480520262036A4268D0F81CC02CF4DA
:102FD000E04C2CF4407C0C684CEA042C23F40053A5
:102FE0008C6843EA0433A0F18044B4F5963404D1EC
:102FF00022F480424C6942EA84124260C0F81CC04C
:1030000049680164036210BC7047036AD0F820C0AD
:103010002CF0010CC0F820C0D0F818C02CF0F00C37
:103020004CEA021223F00A031943826101627047DD
:10303000036A23F010030362D0F818C0036A2CF46B
:10304000704C4CEA023223F0A00343EA0111826182
:103050000162704710B5406A0021C185C184FEF746
:1030600079FC10BD0168CA6822F49072CA600168D8
:103070004A6922F001024A61016B012904D1016809
:10308000CA6822F01002CA60202180F83E10002198
:103090000163704710B50168CA6822F04002CA6037
:1030A000202180F83D10FEF7BEFE002010BD08B5BF
:1030B00090F83E10222901D0022008BD8268B2F5A6
:1030C000805F01D1016929B1816AB2F5805F1DD0AD
:1030D00052B10BE0816A02685268C2F308020A80AA
:1030E000816A891C816209E002697AB102685268CA
:1030F00002F07F020A70816A491C8162C18D491EFB
:103100000904090CC18505D0002008BD0268526879
:103110000A70F0E70168CA6822F02002CA600168FC
:10312000CA6822F48072CA6001684A6922F001020A
:103130004A61202180F83E10016B012903D0FEF77F
:10314000C3FD002008BD002101630168CA6822F0A8
:103150001002CA6001680A6812F0100F02D00A68F3
:1031600049680091818DFEF7F4FBEAE770B50446EB
:1031700020680169E26821F440511143016121692D
:10318000A0680843616901432068C26822F40372A1
:1031900022F4A0521143C16020684169A26921F460
:1031A0004071114341612068A0F18041B1F59C312B
:1031B0003AD0FDF755FD00EBC00101EB001061684E
:1031C0001B4A8900B0FBF1F3A2FB0353B0FBF1FCF7
:1031D0005B096FF018056B430CEB83034FF0320C67
:1031E0000CEB0313A2FB03535B0903F0F005B0FBE8
:1031F000F1F3A2FB03635B0905EB0313B0FBF1F5ED
:10320000B0FBF1F0A2FB001040096FF01801484339
:1032100005EB80000CEB0010A2FB00102168C0F34E
:1032200043101844886070BDFDF72AFDC3E7000015
:103230001F85EB5181628285C285002101642222B3
:1032400080F83E2080F83C100168CA6842F4807221
:10325000CA6001684A6942F001024A610068C168B7
:1032600041F02001C1600020704790F83D102129F5
:1032700001D0022070478168B1F5805F01D10169FA
:1032800061B1016A4A1C0262026809785160C18C0E
:10329000491E0904090CC1840AD013E0016A0268BE
:1032A0000988C1F308015160016A891C0162EEE7D7
:1032B0000168CA6822F08002CA600068C16841F0F3
:1032C0004001C160002070472DE9F0410446069D91
:1032D000884617461E462068006838EA000020D05D
:1032E0000020B84227D1B5F1FF3F1CD025B1FDF732
:1032F000C7F8801BA84216D92068C16821F4D07194
:10330000C1602068416921F001014161202084F8F9
:103310003D0084F83E00002084F83C000320BDE816
:10332000F0810120DDE72068006838EA000005D060
:103330000020B842D7D00020BDE8F0810120F8E796
:103340000148FEF709BB000094010020FEE702E0FF
:1033500008C8121F08C1002AFAD170477047002020
:1033600001E001C1121F002AFBD1704770B5384837
:10337000384D374C0078A5F58C738030C2B2A3F17C
:103380009000A41F64211B680068833A072A5DD25D
:10339000DFE802F02F39434D0F040900287AA030EE
:1033A0005863002103E0687AA030986304212A481A
:1033B00048E0E879264E00F00700361D20713121E3
:1033C0003170707023480A23022231464438FEF7D8
:1033D000C5FCE8793221C0F3C200607131707070B1
:1033E0003146BDE870401B480A2302224438FEF7EC
:1033F000B5BCEA784FF434735A43B2FBF1F1E160A3
:10340000416300211CE02A794FF434735A43B2FB24
:10341000F1F1E1608163042112E06A794FF43473C1
:103420005A43B2FBF1F1E160C163082108E0AA79D7
:103430004FF434735A43B2FBF1F1E16001640C21A3
:1034400005489038BDE87040FEF7AAB970BD00008D
:10345000060000201C0200200401002008B5FDF732
:1034600093FAFFF75AFCFFF7F7FAFFF75FFB3848CC
:103470003649002402C03749082532C0E90260E815
:1034800004148461C46104623148FDF74FF9334884
:1034900031490C2601604FF4E131C0E90114C460E8
:1034A000C0E904468461C461FEF756FBFFF7BAFB2E
:1034B0002A482B49443001604FF41651C0E90114E9
:1034C000C460C0E904468461C461FEF745FBFFF7B0
:1034D000E1FBFFF77DFB21487F2188301423017039
:1034E00085705A21017241720A21C17001714171C6
:1034F00081711B21C17131208DF8000003208DF8EE
:1035000001001648022269464430FEF727FC3220AB
:103510008DF8000011481423022269464430FEF75A
:103520001DFC0E4800219038FEF73AF90B480421A3
:103530009038FEF735F901220A490848FEF7ACFB3E
:1035400006484838FDF7DEFEFEE700000054004064
:1035500020000020A08601000038014094010020D6
:1035600000480040030000202DE9F047DC4E90F8B1
:1035700000C0DC4BD84FD94DF4794FF000084FF420
:10358000004A4FF480414FF40059A3F10A02BCF104
:10359000420F77D01DDCD44B4FF06406BCF1310FE5
:1035A0001B682BD0BCF1320F57D0BCF1330F6AD05F
:1035B000BCF1340F68D14478C9484FF4347C422CB4
:1035C000807900FB0CF075D0462C74D0532C5BD165
:1035D00083E0BCF1460F6FD0BCF1480F6DD0BCF159
:1035E0004D0F51D14D20187001205870BC480A234E
:1035F0000222BC494438FEF7B1FB65E14178B84886
:103600004FF43474C0786043422911D0462904D065
:10361000532939D10022012161E0B0FBF6F0D060DE
:103620005863012210213846FCF722FF002209E0EE
:10363000B0FBF6F0D0605863002210213846FCF74A
:1036400017FF012220213846FCF712FF0122114604
:103650002846FCF70DFF002183E04178A0484FF495
:1036600034740079604342290FD04629D0D1B0FB91
:10367000F6F0D0609863012208213846FCF7F8FE86
:1036800000220CE0A0E019E0A5E0B0FBF6F0D0606D
:103690009863002208213846FCF7EAFE01225146D1
:1036A0002846FCF7E5FE012211462846FCF7E0FE1D
:1036B000042156E042E037E0AAE057E0417888482C
:1036C0004FF4347C4FF480544079422900FB0CF0D5
:1036D00015D0462908D053297DD100220221284641
:1036E000BDE8F047FCF7C4BEB0FBF6F0D060D8638D
:1036F000012251463846FCF7BBFE002209E0B0FB30
:10370000F6F0D060D863002251463846FCF7B0FE90
:10371000012221462846FCF7ABFE01220221284661
:10372000FCF7A6FE08211CE0B0FBF6F0D0601864A0
:1037300001223846FCF79CFE002208E0B0FBF6F0C0
:10374000D060186400223846FCF792FE01224946F8
:103750003846FCF78DFE012202212846FCF788FE40
:103760000C21BDE8F0476048FEF71AB845783121D2
:10377000302D11D05A48312DC07900F007000FD0FC
:10378000422D0FD0442D26D11071197098B3641EAC
:10379000F471401E10712EE0197083F801800AE068
:1037A00010712BE010711970062824D0641CF4717C
:1037B000401CEFE75870BDE8F04749480A23022251
:1037C00048494438FEF7CABA45783221302DE3D053
:1037D0004348C07900E07DE0C0F3C200312D0CD039
:1037E000422D0DD0442D75D15071197018B1083C7F
:1037F000F471401E5071C0B2DCE750711970D9E706
:10380000507119700628F6D00834F471401CF1E7A5
:10381000334A4378354C50789278303B0A2B53D258
:10382000DFE803F0050C151C232A333A4149C00791
:1038300001D0042105E00122042106E0800702D521
:103840000821284632E00122082128463AE04007B4
:1038500001D51021F5E701221021F6E7000701D577
:103860002021EEE701222021EFE7C00601D501214A
:1038700005E00122114606E0800602D50221384605
:1038800014E00122022138461CE0400601D5042143
:10389000F5E701220421F6E7D00701D0494604E00C
:1038A000012249460DE0900703D52046FCF7D8FDDC
:1038B0000AE0012205E0500701D55146F5E7012253
:1038C00051462046FCF7D4FDBDE8F0470648483095
:1038D000FDF718BDBDE8F087000C0140000801406D
:1038E0001C0200200A00002074000020001001408B
:1038F00000000000000000000102030406070809A0
:103900000000000001020304283900080000002024
:10391000200000004E330008483900082000002035
:10392000080600005E3300080000000000000000F0
:10393000000000000000000000A24A040100000096
:0839400010000000000000006F
:04000005080000ED02
:00000001FF
